{"abi":[{"type":"constructor","inputs":[{"name":"_platformAddress","type":"address","internalType":"address"},{"name":"_opsAddress","type":"address","internalType":"address"},{"name":"_mintPrice","type":"uint256","internalType":"uint256"},{"name":"_usageFeePerSecond","type":"uint256","internalType":"uint256"}],"stateMutability":"nonpayable"},{"type":"function","name":"authorizeEngine","inputs":[{"name":"engine","type":"address","internalType":"address"},{"name":"authorized","type":"bool","internalType":"bool"}],"outputs":[],"stateMutability":"nonpayable"},{"type":"function","name":"authorizeOracle","inputs":[{"name":"oracle","type":"address","internalType":"address"},{"name":"authorized","type":"bool","internalType":"bool"}],"outputs":[],"stateMutability":"nonpayable"},{"type":"function","name":"authorizedEngines","inputs":[{"name":"","type":"address","internalType":"address"}],"outputs":[{"name":"","type":"bool","internalType":"bool"}],"stateMutability":"view"},{"type":"function","name":"authorizedOracles","inputs":[{"name":"","type":"address","internalType":"address"}],"outputs":[{"name":"","type":"bool","internalType":"bool"}],"stateMutability":"view"},{"type":"function","name":"deactivateMotion","inputs":[{"name":"motionId","type":"uint256","internalType":"uint256"}],"outputs":[],"stateMutability":"nonpayable"},{"type":"function","name":"getMotionPack","inputs":[{"name":"motionId","type":"uint256","internalType":"uint256"}],"outputs":[{"name":"packHash","type":"bytes32","internalType":"bytes32"},{"name":"creator","type":"address","internalType":"address"},{"name":"mintedAt","type":"uint256","internalType":"uint256"},{"name":"ipfsUri","type":"string","internalType":"string"},{"name":"styleLabels","type":"string[]","internalType":"string[]"},{"name":"npcTags","type":"string[]","internalType":"string[]"},{"name":"isActive","type":"bool","internalType":"bool"},{"name":"usageCount","type":"uint256","internalType":"uint256"}],"stateMutability":"view"},{"type":"function","name":"getNPCState","inputs":[{"name":"npcId","type":"uint256","internalType":"uint256"}],"outputs":[{"name":"currentMotionId","type":"uint256","internalType":"uint256"},{"name":"lastUpdateBlock","type":"uint256","internalType":"uint256"},{"name":"gameEngine","type":"address","internalType":"address"},{"name":"blendState","type":"bytes32","internalType":"bytes32"},{"name":"energyLevel","type":"uint256","internalType":"uint256"}],"stateMutability":"view"},{"type":"function","name":"mintMotionPack","inputs":[{"name":"packHash","type":"bytes32","internalType":"bytes32"},{"name":"creator","type":"address","internalType":"address"},{"name":"ipfsUri","type":"string","internalType":"string"},{"name":"styleLabels","type":"string[]","internalType":"string[]"},{"name":"npcTags","type":"string[]","internalType":"string[]"}],"outputs":[{"name":"","type":"uint256","internalType":"uint256"}],"stateMutability":"nonpayable"},{"type":"function","name":"mintPrice","inputs":[],"outputs":[{"name":"","type":"uint256","internalType":"uint256"}],"stateMutability":"view"},{"type":"function","name":"motionPacks","inputs":[{"name":"","type":"uint256","internalType":"uint256"}],"outputs":[{"name":"packHash","type":"bytes32","internalType":"bytes32"},{"name":"creator","type":"address","internalType":"address"},{"name":"mintedAt","type":"uint256","internalType":"uint256"},{"name":"ipfsUri","type":"string","internalType":"string"},{"name":"isActive","type":"bool","internalType":"bool"},{"name":"usageCount","type":"uint256","internalType":"uint256"}],"stateMutability":"view"},{"type":"function","name":"nextMotionId","inputs":[],"outputs":[{"name":"","type":"uint256","internalType":"uint256"}],"stateMutability":"view"},{"type":"function","name":"nextNpcId","inputs":[],"outputs":[{"name":"","type":"uint256","internalType":"uint256"}],"stateMutability":"view"},{"type":"function","name":"npcStates","inputs":[{"name":"","type":"uint256","internalType":"uint256"}],"outputs":[{"name":"currentMotionId","type":"uint256","internalType":"uint256"},{"name":"lastUpdateBlock","type":"uint256","internalType":"uint256"},{"name":"gameEngine","type":"address","internalType":"address"},{"name":"blendState","type":"bytes32","internalType":"bytes32"},{"name":"energyLevel","type":"uint256","internalType":"uint256"}],"stateMutability":"view"},{"type":"function","name":"opsAddress","inputs":[],"outputs":[{"name":"","type":"address","internalType":"address"}],"stateMutability":"view"},{"type":"function","name":"owner","inputs":[],"outputs":[{"name":"","type":"address","internalType":"address"}],"stateMutability":"view"},{"type":"function","name":"payoutSplit","inputs":[],"outputs":[{"name":"creator","type":"uint256","internalType":"uint256"},{"name":"oracle","type":"uint256","internalType":"uint256"},{"name":"platform","type":"uint256","internalType":"uint256"},{"name":"ops","type":"uint256","internalType":"uint256"}],"stateMutability":"view"},{"type":"function","name":"platformAddress","inputs":[],"outputs":[{"name":"","type":"address","internalType":"address"}],"stateMutability":"view"},{"type":"function","name":"recordUsageAndPay","inputs":[{"name":"motionId","type":"uint256","internalType":"uint256"},{"name":"npcId","type":"uint256","internalType":"uint256"},{"name":"durationSeconds","type":"uint256","internalType":"uint256"}],"outputs":[],"stateMutability":"payable"},{"type":"function","name":"spawnNPC","inputs":[{"name":"motionId","type":"uint256","internalType":"uint256"}],"outputs":[{"name":"","type":"uint256","internalType":"uint256"}],"stateMutability":"nonpayable"},{"type":"function","name":"updateNPCState","inputs":[{"name":"npcId","type":"uint256","internalType":"uint256"},{"name":"newMotionId","type":"uint256","internalType":"uint256"},{"name":"blendState","type":"bytes32","internalType":"bytes32"},{"name":"energyLevel","type":"uint256","internalType":"uint256"}],"outputs":[],"stateMutability":"nonpayable"},{"type":"function","name":"updatePricing","inputs":[{"name":"newMintPrice","type":"uint256","internalType":"uint256"},{"name":"newUsageFee","type":"uint256","internalType":"uint256"}],"outputs":[],"stateMutability":"nonpayable"},{"type":"function","name":"usageFeePerSecond","inputs":[],"outputs":[{"name":"","type":"uint256","internalType":"uint256"}],"stateMutability":"view"},{"type":"event","name":"MotionMinted","inputs":[{"name":"motionId","type":"uint256","indexed":true,"internalType":"uint256"},{"name":"packHash","type":"bytes32","indexed":true,"internalType":"bytes32"},{"name":"creator","type":"address","indexed":true,"internalType":"address"},{"name":"ipfsUri","type":"string","indexed":false,"internalType":"string"}],"anonymous":false},{"type":"event","name":"MotionUsageRecorded","inputs":[{"name":"motionId","type":"uint256","indexed":true,"internalType":"uint256"},{"name":"npcId","type":"uint256","indexed":true,"internalType":"uint256"},{"name":"durationSeconds","type":"uint256","indexed":false,"internalType":"uint256"},{"name":"feePaid","type":"uint256","indexed":false,"internalType":"uint256"}],"anonymous":false},{"type":"event","name":"NPCSpawned","inputs":[{"name":"npcId","type":"uint256","indexed":true,"internalType":"uint256"},{"name":"motionId","type":"uint256","indexed":true,"internalType":"uint256"},{"name":"gameEngine","type":"address","indexed":true,"internalType":"address"}],"anonymous":false},{"type":"event","name":"NPCStateUpdated","inputs":[{"name":"npcId","type":"uint256","indexed":true,"internalType":"uint256"},{"name":"newMotionId","type":"uint256","indexed":false,"internalType":"uint256"},{"name":"blendState","type":"bytes32","indexed":false,"internalType":"bytes32"},{"name":"energyLevel","type":"uint256","indexed":false,"internalType":"uint256"}],"anonymous":false},{"type":"event","name":"PayoutDistributed","inputs":[{"name":"motionId","type":"uint256","indexed":true,"internalType":"uint256"},{"name":"creator","type":"address","indexed":false,"internalType":"address"},{"name":"creatorAmount","type":"uint256","indexed":false,"internalType":"uint256"},{"name":"oracleAmount","type":"uint256","indexed":false,"internalType":"uint256"},{"name":"platformAmount","type":"uint256","indexed":false,"internalType":"uint256"},{"name":"opsAmount","type":"uint256","indexed":false,"internalType":"uint256"}],"anonymous":false}],"bytecode":{"object":"0x608060405234801561000f575f5ffd5b50604051611a18380380611a1883398101604081905261002e916100da565b600680546001600160a01b03199081163317909155600d80546001600160a01b03968716908316179055600e80549490951693169290921790925560079190915560085560408051608081018252611b588082526103e8602083018190526105dc9383018490526101f46060909301839052600991909155600a55600b91909155600c55600180805560035561011a565b80516001600160a01b03811681146100d5575f5ffd5b919050565b5f5f5f5f608085870312156100ed575f5ffd5b6100f6856100bf565b9350610104602086016100bf565b6040860151606090960151949790965092505050565b6118f1806101275f395ff3fe608060405260043610610131575f3560e01c80636817c76c116100a8578063a12df0e71161006d578063a12df0e71461040a578063b088a15a1461044c578063b1bf884a1461047d578063c7e2d5c4146104ab578063dbe55e56146104de578063dd7bcafa146104fd575f5ffd5b80636817c76c146103755780638cf1fc401461038a5780638da5cb5b1461039f5780638ea64376146103d657806397d90480146103f5575f5ffd5b80632fbdcc8f116100f95780632fbdcc8f146101e55780633f299c04146102045780634c0338d41461022357806355014fab146102d2578063571fedc01461032457806361c992a314610337575f5ffd5b80630c1f7985146101355780630c2c69fa1461015657806310e5ab8114610175578063117f7c2214610194578063191814c3146101c6575b5f5ffd5b348015610140575f5ffd5b5061015461014f36600461124f565b610512565b005b348015610161575f5ffd5b5061015461017036600461124f565b61056f565b348015610180575f5ffd5b5061015461018f366004611288565b6105c3565b34801561019f575f5ffd5b506101b36101ae3660046113fd565b6105f8565b6040519081526020015b60405180910390f35b3480156101d1575f5ffd5b506101b36101e03660046114a5565b6107a5565b3480156101f0575f5ffd5b506101546101ff3660046114bc565b61090e565b34801561020f575f5ffd5b5061015461021e3660046114a5565b610a7b565b34801561022e575f5ffd5b5061029c61023d3660046114a5565b5f90815260026020818152604092839020835160a08101855281548082526001830154938201849052938201546001600160a01b0316948101859052600382015460608201819052600490920154608090910181905292949193929091565b6040805195865260208601949094526001600160a01b03909216928401929092526060830191909152608082015260a0016101bd565b3480156102dd575f5ffd5b5061029c6102ec3660046114a5565b600260208190525f9182526040909120805460018201549282015460038301546004909301549193926001600160a01b039091169185565b6101546103323660046114eb565b610abf565b348015610342575f5ffd5b50610365610351366004611514565b60046020525f908152604090205460ff1681565b60405190151581526020016101bd565b348015610380575f5ffd5b506101b360075481565b348015610395575f5ffd5b506101b360085481565b3480156103aa575f5ffd5b506006546103be906001600160a01b031681565b6040516001600160a01b0390911681526020016101bd565b3480156103e1575f5ffd5b50600e546103be906001600160a01b031681565b348015610400575f5ffd5b506101b360015481565b348015610415575f5ffd5b50600954600a54600b54600c5461042c9392919084565b6040805194855260208501939093529183015260608201526080016101bd565b348015610457575f5ffd5b5061046b6104663660046114a5565b610dc6565b6040516101bd96959493929190611562565b348015610488575f5ffd5b50610365610497366004611514565b60056020525f908152604090205460ff1681565b3480156104b6575f5ffd5b506104ca6104c53660046114a5565b610e90565b6040516101bd9897969594939291906115fd565b3480156104e9575f5ffd5b50600d546103be906001600160a01b031681565b348015610508575f5ffd5b506101b360035481565b6006546001600160a01b031633146105455760405162461bcd60e51b815260040161053c90611669565b60405180910390fd5b6001600160a01b03919091165f908152600560205260409020805460ff1916911515919091179055565b6006546001600160a01b031633146105995760405162461bcd60e51b815260040161053c90611669565b6001600160a01b03919091165f908152600460205260409020805460ff1916911515919091179055565b6006546001600160a01b031633146105ed5760405162461bcd60e51b815260040161053c90611669565b600791909155600855565b335f9081526004602052604081205460ff1661064f5760405162461bcd60e51b81526020600482015260166024820152754f6e6c7920617574686f72697a6564206f7261636c6560501b604482015260640161053c565b600180545f918261065f836116a1565b9091555060408051610100810182528981526001600160a01b03898116602080840191825242848601908152606085018c8152608086018c905260a086018b9052600160c087018190525f60e08801819052898152938490529690922085518155925195830180546001600160a01b031916969094169590951790925592516002840155519293509160038201906106f7908261173d565b506080820151805161071391600484019160209091019061117b565b5060a0820151805161072f91600584019160209091019061117b565b5060c082015160068201805460ff191691151591909117905560e0909101516007909101556040516001600160a01b03871690889083907f86e6726677343880c771f6ccb47b7e6b89147270e854a6c514b3101a380c16ea90610793908a906117f8565b60405180910390a49695505050505050565b335f9081526005602052604081205460ff166107d35760405162461bcd60e51b815260040161053c9061180a565b5f8281526020819052604090206006015460ff166108035760405162461bcd60e51b815260040161053c90611841565b600380545f9182610813836116a1565b9190505590506040518060a00160405280848152602001438152602001336001600160a01b03168152602001846040516020016108669190661a5b9a5d1a585b60ca1b8152600781019190915260270190565b60408051808303601f19018152918152815160209283012083526064928201929092525f8481526002808352838220855181559285015160018401558484015190830180546001600160a01b0319166001600160a01b0390921691909117905560608401516003830155608090930151600490910155513391859184917f04fe46963962a564571b6f92996d481098c558c819a4423225b2c21e6d10627491a490505b919050565b335f9081526005602052604090205460ff1661093c5760405162461bcd60e51b815260040161053c9061180a565b5f84815260026020819052604090912001546001600160a01b031633146109955760405162461bcd60e51b815260206004820152600d60248201526c2737ba102728219037bbb732b960991b604482015260640161053c565b5f8381526020819052604090206006015460ff166109c55760405162461bcd60e51b815260040161053c90611841565b6064811115610a0e5760405162461bcd60e51b81526020600482015260156024820152740456e65726779206d757374206265203c3d2031303605c1b604482015260640161053c565b5f8481526002602090815260409182902085815543600182015560038101859055600401839055815185815290810184905290810182905284907f8bc5034c4b8636a5115ba5bf101c6ddacde23423b1056bf4169cb163928256599060600160405180910390a250505050565b6006546001600160a01b03163314610aa55760405162461bcd60e51b815260040161053c90611669565b5f908152602081905260409020600601805460ff19169055565b335f9081526005602052604090205460ff16610aed5760405162461bcd60e51b815260040161053c9061180a565b5f838152602081905260409020600681015460ff16610b1e5760405162461bcd60e51b815260040161053c90611841565b5f82600854610b2d919061186c565b905080341015610b765760405162461bcd60e51b8152602060048201526014602482015273125b9cdd59999a58da595b9d081c185e5b595b9d60621b604482015260640161053c565b6009545f9061271090610b89908461186c565b610b939190611889565b90505f61271060096001015484610baa919061186c565b610bb49190611889565b90505f61271060096002015485610bcb919061186c565b610bd59190611889565b90505f61271060096003015486610bec919061186c565b610bf69190611889565b60018701546040519192506001600160a01b03169085156108fc029086905f818181858888f19350505050158015610c30573d5f5f3e3d5ffd5b50604051339084156108fc029085905f818181858888f19350505050158015610c5b573d5f5f3e3d5ffd5b50600d546040516001600160a01b039091169083156108fc029084905f818181858888f19350505050158015610c93573d5f5f3e3d5ffd5b50600e546040516001600160a01b039091169082156108fc029083905f818181858888f19350505050158015610ccb573d5f5f3e3d5ffd5b50600786018054905f610cdd836116a1565b9091555050604080518881526020810187905289918b917f078ac97f81f98d26f760c68b6d7ae91fdad51e6c0ea003992616379ff25b1118910160405180910390a36001860154604080516001600160a01b039092168252602082018690528101849052606081018390526080810182905289907fcf9b523226072ca8c617f5a5fe767a08749b1878597c81e2873e4d4aa63452ea9060a00160405180910390a284341115610dbb57336108fc610d9487346118a8565b6040518115909202915f818181858888f19350505050158015610db9573d5f5f3e3d5ffd5b505b505050505050505050565b5f60208190529081526040902080546001820154600283015460038401805493946001600160a01b0390931693919291610dff906116b9565b80601f0160208091040260200160405190810160405280929190818152602001828054610e2b906116b9565b8015610e765780601f10610e4d57610100808354040283529160200191610e76565b820191905f5260205f20905b815481529060010190602001808311610e5957829003601f168201915b505050506006830154600790930154919260ff1691905086565b5f818152602081815260408083208151610100810183528154815260018201546001600160a01b03169381019390935260028101549183019190915260038101805484938493606093849384938793849384938388019190610ef1906116b9565b80601f0160208091040260200160405190810160405280929190818152602001828054610f1d906116b9565b8015610f685780601f10610f3f57610100808354040283529160200191610f68565b820191905f5260205f20905b815481529060010190602001808311610f4b57829003601f168201915b5050505050815260200160048201805480602002602001604051908101604052809291908181526020015f905b8282101561103d578382905f5260205f20018054610fb2906116b9565b80601f0160208091040260200160405190810160405280929190818152602001828054610fde906116b9565b80156110295780601f1061100057610100808354040283529160200191611029565b820191905f5260205f20905b81548152906001019060200180831161100c57829003601f168201915b505050505081526020019060010190610f95565b50505050815260200160058201805480602002602001604051908101604052809291908181526020015f905b82821015611111578382905f5260205f20018054611086906116b9565b80601f01602080910402602001604051908101604052809291908181526020018280546110b2906116b9565b80156110fd5780601f106110d4576101008083540402835291602001916110fd565b820191905f5260205f20905b8154815290600101906020018083116110e057829003601f168201915b505050505081526020019060010190611069565b50505090825250600682015460ff161515602080830191909152600790920154604091820152825191830151908301516060840151608085015160a086015160c087015160e090970151959f50939d50919b50995097509550909350915050919395975091939597565b828054828255905f5260205f209081019282156111bf579160200282015b828111156111bf57825182906111af908261173d565b5091602001919060010190611199565b506111cb9291506111cf565b5090565b808211156111cb575f6111e282826111eb565b506001016111cf565b5080546111f7906116b9565b5f825580601f10611206575050565b601f0160209004905f5260205f20908101906112229190611225565b50565b5b808211156111cb575f8155600101611226565b80356001600160a01b0381168114610909575f5ffd5b5f5f60408385031215611260575f5ffd5b61126983611239565b91506020830135801515811461127d575f5ffd5b809150509250929050565b5f5f60408385031215611299575f5ffd5b50508035926020909101359150565b634e487b7160e01b5f52604160045260245ffd5b604051601f8201601f1916810167ffffffffffffffff811182821017156112e5576112e56112a8565b604052919050565b5f82601f8301126112fc575f5ffd5b813567ffffffffffffffff811115611316576113166112a8565b611329601f8201601f19166020016112bc565b81815284602083860101111561133d575f5ffd5b816020850160208301375f918101602001919091529392505050565b5f82601f830112611368575f5ffd5b813567ffffffffffffffff811115611382576113826112a8565b8060051b611392602082016112bc565b918252602081850181019290810190868411156113ad575f5ffd5b6020860192505b838310156113f357823567ffffffffffffffff8111156113d2575f5ffd5b6113e1886020838a01016112ed565b835250602092830192909101906113b4565b9695505050505050565b5f5f5f5f5f60a08688031215611411575f5ffd5b8535945061142160208701611239565b9350604086013567ffffffffffffffff81111561143c575f5ffd5b611448888289016112ed565b935050606086013567ffffffffffffffff811115611464575f5ffd5b61147088828901611359565b925050608086013567ffffffffffffffff81111561148c575f5ffd5b61149888828901611359565b9150509295509295909350565b5f602082840312156114b5575f5ffd5b5035919050565b5f5f5f5f608085870312156114cf575f5ffd5b5050823594602084013594506040840135936060013592509050565b5f5f5f606084860312156114fd575f5ffd5b505081359360208301359350604090920135919050565b5f60208284031215611524575f5ffd5b61152d82611239565b9392505050565b5f81518084528060208401602086015e5f602082860101526020601f19601f83011685010191505092915050565b86815260018060a01b038616602082015284604082015260c060608201525f61158e60c0830186611534565b93151560808301525060a00152949350505050565b5f82825180855260208501945060208160051b830101602085015f5b838110156115f157601f198584030188526115db838351611534565b60209889019890935091909101906001016115bf565b50909695505050505050565b88815260018060a01b038816602082015286604082015261010060608201525f61162b610100830188611534565b828103608084015261163d81886115a3565b905082810360a084015261165181876115a3565b94151560c0840152505060e001529695505050505050565b6020808252600a908201526927b7363c9037bbb732b960b11b604082015260600190565b634e487b7160e01b5f52601160045260245ffd5b5f600182016116b2576116b261168d565b5060010190565b600181811c908216806116cd57607f821691505b6020821081036116eb57634e487b7160e01b5f52602260045260245ffd5b50919050565b601f82111561173857805f5260205f20601f840160051c810160208510156117165750805b601f840160051c820191505b81811015611735575f8155600101611722565b50505b505050565b815167ffffffffffffffff811115611757576117576112a8565b61176b8161176584546116b9565b846116f1565b6020601f82116001811461179d575f83156117865750848201515b5f19600385901b1c1916600184901b178455611735565b5f84815260208120601f198516915b828110156117cc57878501518255602094850194600190920191016117ac565b50848210156117e957868401515f19600387901b60f8161c191681555b50505050600190811b01905550565b602081525f61152d6020830184611534565b6020808252601b908201527f4f6e6c7920617574686f72697a65642067616d6520656e67696e650000000000604082015260600190565b6020808252601190820152704d6f74696f6e206e6f742061637469766560781b604082015260600190565b80820281158282048414176118835761188361168d565b92915050565b5f826118a357634e487b7160e01b5f52601260045260245ffd5b500490565b818103818111156118835761188361168d56fea2646970667358221220344d557885fc48a6feecd9dfee703b3ced04311bd1788b2da7c8507c5b3da4ef64736f6c634300081e0033","linkReferences":{}},"methodIdentifiers":{"authorizeEngine(address,bool)":"0c1f7985","authorizeOracle(address,bool)":"0c2c69fa","authorizedEngines(address)":"b1bf884a","authorizedOracles(address)":"61c992a3","deactivateMotion(uint256)":"3f299c04","getMotionPack(uint256)":"c7e2d5c4","getNPCState(uint256)":"4c0338d4","mintMotionPack(bytes32,address,string,string[],string[])":"117f7c22","mintPrice()":"6817c76c","motionPacks(uint256)":"b088a15a","nextMotionId()":"97d90480","nextNpcId()":"dd7bcafa","npcStates(uint256)":"55014fab","opsAddress()":"8ea64376","owner()":"8da5cb5b","payoutSplit()":"a12df0e7","platformAddress()":"dbe55e56","recordUsageAndPay(uint256,uint256,uint256)":"571fedc0","spawnNPC(uint256)":"191814c3","updateNPCState(uint256,uint256,bytes32,uint256)":"2fbdcc8f","updatePricing(uint256,uint256)":"10e5ab81","usageFeePerSecond()":"8cf1fc40"},"id":0}